{
  "_format": "hh-sol-artifact-1",
  "contractName": "CryptoverseXplore",
  "sourceName": "contracts/NFTContracts.sol",
  "abi": [
    {
      "inputs": [
        {
          "internalType": "string",
          "name": "_name",
          "type": "string"
        },
        {
          "internalType": "string",
          "name": "_symbol",
          "type": "string"
        },
        {
          "internalType": "string",
          "name": "_initBaseURI",
          "type": "string"
        },
        {
          "internalType": "string",
          "name": "_initNotRevealedUri",
          "type": "string"
        }
      ],
      "stateMutability": "nonpayable",
      "type": "constructor"
    },
    {
      "inputs": [],
      "name": "ApprovalCallerNotOwnerNorApproved",
      "type": "error"
    },
    {
      "inputs": [],
      "name": "ApprovalQueryForNonexistentToken",
      "type": "error"
    },
    {
      "inputs": [],
      "name": "ApprovalToCurrentOwner",
      "type": "error"
    },
    {
      "inputs": [],
      "name": "ApproveToCaller",
      "type": "error"
    },
    {
      "inputs": [],
      "name": "BalanceQueryForZeroAddress",
      "type": "error"
    },
    {
      "inputs": [],
      "name": "MintToZeroAddress",
      "type": "error"
    },
    {
      "inputs": [],
      "name": "MintZeroQuantity",
      "type": "error"
    },
    {
      "inputs": [],
      "name": "OwnerQueryForNonexistentToken",
      "type": "error"
    },
    {
      "inputs": [],
      "name": "TransferCallerNotOwnerNorApproved",
      "type": "error"
    },
    {
      "inputs": [],
      "name": "TransferFromIncorrectOwner",
      "type": "error"
    },
    {
      "inputs": [],
      "name": "TransferToNonERC721ReceiverImplementer",
      "type": "error"
    },
    {
      "inputs": [],
      "name": "TransferToZeroAddress",
      "type": "error"
    },
    {
      "anonymous": false,
      "inputs": [
        {
          "indexed": true,
          "internalType": "address",
          "name": "owner",
          "type": "address"
        },
        {
          "indexed": true,
          "internalType": "address",
          "name": "approved",
          "type": "address"
        },
        {
          "indexed": true,
          "internalType": "uint256",
          "name": "tokenId",
          "type": "uint256"
        }
      ],
      "name": "Approval",
      "type": "event"
    },
    {
      "anonymous": false,
      "inputs": [
        {
          "indexed": true,
          "internalType": "address",
          "name": "owner",
          "type": "address"
        },
        {
          "indexed": true,
          "internalType": "address",
          "name": "operator",
          "type": "address"
        },
        {
          "indexed": false,
          "internalType": "bool",
          "name": "approved",
          "type": "bool"
        }
      ],
      "name": "ApprovalForAll",
      "type": "event"
    },
    {
      "anonymous": false,
      "inputs": [
        {
          "indexed": true,
          "internalType": "address",
          "name": "previousOwner",
          "type": "address"
        },
        {
          "indexed": true,
          "internalType": "address",
          "name": "newOwner",
          "type": "address"
        }
      ],
      "name": "OwnershipTransferred",
      "type": "event"
    },
    {
      "anonymous": false,
      "inputs": [
        {
          "indexed": true,
          "internalType": "address",
          "name": "from",
          "type": "address"
        },
        {
          "indexed": true,
          "internalType": "address",
          "name": "to",
          "type": "address"
        },
        {
          "indexed": true,
          "internalType": "uint256",
          "name": "tokenId",
          "type": "uint256"
        }
      ],
      "name": "Transfer",
      "type": "event"
    },
    {
      "inputs": [
        {
          "internalType": "address",
          "name": "",
          "type": "address"
        }
      ],
      "name": "addressPresaleMinted",
      "outputs": [
        {
          "internalType": "uint256",
          "name": "",
          "type": "uint256"
        }
      ],
      "stateMutability": "view",
      "type": "function"
    },
    {
      "inputs": [
        {
          "internalType": "address",
          "name": "to",
          "type": "address"
        },
        {
          "internalType": "uint256",
          "name": "tokenId",
          "type": "uint256"
        }
      ],
      "name": "approve",
      "outputs": [],
      "stateMutability": "nonpayable",
      "type": "function"
    },
    {
      "inputs": [
        {
          "internalType": "address",
          "name": "owner",
          "type": "address"
        }
      ],
      "name": "balanceOf",
      "outputs": [
        {
          "internalType": "uint256",
          "name": "",
          "type": "uint256"
        }
      ],
      "stateMutability": "view",
      "type": "function"
    },
    {
      "inputs": [],
      "name": "baseExtension",
      "outputs": [
        {
          "internalType": "string",
          "name": "",
          "type": "string"
        }
      ],
      "stateMutability": "view",
      "type": "function"
    },
    {
      "inputs": [],
      "name": "baseURI",
      "outputs": [
        {
          "internalType": "string",
          "name": "",
          "type": "string"
        }
      ],
      "stateMutability": "view",
      "type": "function"
    },
    {
      "inputs": [],
      "name": "cost",
      "outputs": [
        {
          "internalType": "uint256",
          "name": "",
          "type": "uint256"
        }
      ],
      "stateMutability": "view",
      "type": "function"
    },
    {
      "inputs": [
        {
          "internalType": "uint256",
          "name": "tokenId",
          "type": "uint256"
        }
      ],
      "name": "getApproved",
      "outputs": [
        {
          "internalType": "address",
          "name": "",
          "type": "address"
        }
      ],
      "stateMutability": "view",
      "type": "function"
    },
    {
      "inputs": [
        {
          "internalType": "address",
          "name": "owner",
          "type": "address"
        },
        {
          "internalType": "address",
          "name": "operator",
          "type": "address"
        }
      ],
      "name": "isApprovedForAll",
      "outputs": [
        {
          "internalType": "bool",
          "name": "",
          "type": "bool"
        }
      ],
      "stateMutability": "view",
      "type": "function"
    },
    {
      "inputs": [
        {
          "internalType": "address",
          "name": "_user",
          "type": "address"
        }
      ],
      "name": "isWhitelisted",
      "outputs": [
        {
          "internalType": "bool",
          "name": "",
          "type": "bool"
        }
      ],
      "stateMutability": "view",
      "type": "function"
    },
    {
      "inputs": [],
      "name": "maxMintAmount",
      "outputs": [
        {
          "internalType": "uint256",
          "name": "",
          "type": "uint256"
        }
      ],
      "stateMutability": "view",
      "type": "function"
    },
    {
      "inputs": [],
      "name": "maxSupply",
      "outputs": [
        {
          "internalType": "uint256",
          "name": "",
          "type": "uint256"
        }
      ],
      "stateMutability": "view",
      "type": "function"
    },
    {
      "inputs": [
        {
          "internalType": "uint256",
          "name": "_mintAmount",
          "type": "uint256"
        }
      ],
      "name": "mint",
      "outputs": [],
      "stateMutability": "payable",
      "type": "function"
    },
    {
      "inputs": [],
      "name": "name",
      "outputs": [
        {
          "internalType": "string",
          "name": "",
          "type": "string"
        }
      ],
      "stateMutability": "view",
      "type": "function"
    },
    {
      "inputs": [],
      "name": "nftPerAddressLimit",
      "outputs": [
        {
          "internalType": "uint256",
          "name": "",
          "type": "uint256"
        }
      ],
      "stateMutability": "view",
      "type": "function"
    },
    {
      "inputs": [],
      "name": "notRevealedUri",
      "outputs": [
        {
          "internalType": "string",
          "name": "",
          "type": "string"
        }
      ],
      "stateMutability": "view",
      "type": "function"
    },
    {
      "inputs": [],
      "name": "onlyWhitelisted",
      "outputs": [
        {
          "internalType": "bool",
          "name": "",
          "type": "bool"
        }
      ],
      "stateMutability": "view",
      "type": "function"
    },
    {
      "inputs": [],
      "name": "owner",
      "outputs": [
        {
          "internalType": "address",
          "name": "",
          "type": "address"
        }
      ],
      "stateMutability": "view",
      "type": "function"
    },
    {
      "inputs": [
        {
          "internalType": "uint256",
          "name": "tokenId",
          "type": "uint256"
        }
      ],
      "name": "ownerOf",
      "outputs": [
        {
          "internalType": "address",
          "name": "",
          "type": "address"
        }
      ],
      "stateMutability": "view",
      "type": "function"
    },
    {
      "inputs": [
        {
          "internalType": "bool",
          "name": "_state",
          "type": "bool"
        }
      ],
      "name": "pause",
      "outputs": [],
      "stateMutability": "nonpayable",
      "type": "function"
    },
    {
      "inputs": [],
      "name": "paused",
      "outputs": [
        {
          "internalType": "bool",
          "name": "",
          "type": "bool"
        }
      ],
      "stateMutability": "view",
      "type": "function"
    },
    {
      "inputs": [],
      "name": "renounceOwnership",
      "outputs": [],
      "stateMutability": "nonpayable",
      "type": "function"
    },
    {
      "inputs": [],
      "name": "reveal",
      "outputs": [],
      "stateMutability": "nonpayable",
      "type": "function"
    },
    {
      "inputs": [],
      "name": "revealed",
      "outputs": [
        {
          "internalType": "bool",
          "name": "",
          "type": "bool"
        }
      ],
      "stateMutability": "view",
      "type": "function"
    },
    {
      "inputs": [
        {
          "internalType": "address",
          "name": "from",
          "type": "address"
        },
        {
          "internalType": "address",
          "name": "to",
          "type": "address"
        },
        {
          "internalType": "uint256",
          "name": "tokenId",
          "type": "uint256"
        }
      ],
      "name": "safeTransferFrom",
      "outputs": [],
      "stateMutability": "nonpayable",
      "type": "function"
    },
    {
      "inputs": [
        {
          "internalType": "address",
          "name": "from",
          "type": "address"
        },
        {
          "internalType": "address",
          "name": "to",
          "type": "address"
        },
        {
          "internalType": "uint256",
          "name": "tokenId",
          "type": "uint256"
        },
        {
          "internalType": "bytes",
          "name": "_data",
          "type": "bytes"
        }
      ],
      "name": "safeTransferFrom",
      "outputs": [],
      "stateMutability": "nonpayable",
      "type": "function"
    },
    {
      "inputs": [
        {
          "internalType": "address",
          "name": "operator",
          "type": "address"
        },
        {
          "internalType": "bool",
          "name": "approved",
          "type": "bool"
        }
      ],
      "name": "setApprovalForAll",
      "outputs": [],
      "stateMutability": "nonpayable",
      "type": "function"
    },
    {
      "inputs": [
        {
          "internalType": "string",
          "name": "_newBaseExtension",
          "type": "string"
        }
      ],
      "name": "setBaseExtension",
      "outputs": [],
      "stateMutability": "nonpayable",
      "type": "function"
    },
    {
      "inputs": [
        {
          "internalType": "string",
          "name": "_newBaseURI",
          "type": "string"
        }
      ],
      "name": "setBaseURI",
      "outputs": [],
      "stateMutability": "nonpayable",
      "type": "function"
    },
    {
      "inputs": [
        {
          "internalType": "uint256",
          "name": "_newCost",
          "type": "uint256"
        }
      ],
      "name": "setCost",
      "outputs": [],
      "stateMutability": "nonpayable",
      "type": "function"
    },
    {
      "inputs": [
        {
          "internalType": "uint256",
          "name": "_limit",
          "type": "uint256"
        }
      ],
      "name": "setNftPerAddressLimit",
      "outputs": [],
      "stateMutability": "nonpayable",
      "type": "function"
    },
    {
      "inputs": [
        {
          "internalType": "string",
          "name": "_notRevealedURI",
          "type": "string"
        }
      ],
      "name": "setNotRevealedURI",
      "outputs": [],
      "stateMutability": "nonpayable",
      "type": "function"
    },
    {
      "inputs": [
        {
          "internalType": "bool",
          "name": "_state",
          "type": "bool"
        }
      ],
      "name": "setOnlyWhitelisted",
      "outputs": [],
      "stateMutability": "nonpayable",
      "type": "function"
    },
    {
      "inputs": [
        {
          "internalType": "uint256",
          "name": "_newmaxMintAmount",
          "type": "uint256"
        }
      ],
      "name": "setmaxMintAmount",
      "outputs": [],
      "stateMutability": "nonpayable",
      "type": "function"
    },
    {
      "inputs": [
        {
          "internalType": "bytes4",
          "name": "interfaceId",
          "type": "bytes4"
        }
      ],
      "name": "supportsInterface",
      "outputs": [
        {
          "internalType": "bool",
          "name": "",
          "type": "bool"
        }
      ],
      "stateMutability": "view",
      "type": "function"
    },
    {
      "inputs": [],
      "name": "symbol",
      "outputs": [
        {
          "internalType": "string",
          "name": "",
          "type": "string"
        }
      ],
      "stateMutability": "view",
      "type": "function"
    },
    {
      "inputs": [
        {
          "internalType": "uint256",
          "name": "tokenId",
          "type": "uint256"
        }
      ],
      "name": "tokenURI",
      "outputs": [
        {
          "internalType": "string",
          "name": "",
          "type": "string"
        }
      ],
      "stateMutability": "view",
      "type": "function"
    },
    {
      "inputs": [],
      "name": "totalSupply",
      "outputs": [
        {
          "internalType": "uint256",
          "name": "",
          "type": "uint256"
        }
      ],
      "stateMutability": "view",
      "type": "function"
    },
    {
      "inputs": [
        {
          "internalType": "address",
          "name": "from",
          "type": "address"
        },
        {
          "internalType": "address",
          "name": "to",
          "type": "address"
        },
        {
          "internalType": "uint256",
          "name": "tokenId",
          "type": "uint256"
        }
      ],
      "name": "transferFrom",
      "outputs": [],
      "stateMutability": "nonpayable",
      "type": "function"
    },
    {
      "inputs": [
        {
          "internalType": "address",
          "name": "newOwner",
          "type": "address"
        }
      ],
      "name": "transferOwnership",
      "outputs": [],
      "stateMutability": "nonpayable",
      "type": "function"
    },
    {
      "inputs": [
        {
          "internalType": "address[]",
          "name": "_users",
          "type": "address[]"
        }
      ],
      "name": "whitelistUsers",
      "outputs": [],
      "stateMutability": "nonpayable",
      "type": "function"
    },
    {
      "inputs": [
        {
          "internalType": "uint256",
          "name": "",
          "type": "uint256"
        }
      ],
      "name": "whitelistedAddresses",
      "outputs": [
        {
          "internalType": "address",
          "name": "",
          "type": "address"
        }
      ],
      "stateMutability": "view",
      "type": "function"
    },
    {
      "inputs": [],
      "name": "withdraw",
      "outputs": [],
      "stateMutability": "payable",
      "type": "function"
    }
  ],
  "bytecode": "0x60806040526040518060400160405280600581526020017f2e6a736f6e000000000000000000000000000000000000000000000000000000815250600b908051906020019062000051929190620003e9565b506703782dace9d90000600d55611770600e556014600f5560056010556000601160006101000a81548160ff0219169083151502179055506000601160016101000a81548160ff0219169083151502179055506001601160026101000a81548160ff021916908315150217905550348015620000cc57600080fd5b5060405162004c6938038062004c698339818101604052810190620000f291906200050b565b838381600290805190602001906200010c929190620003e9565b50806003908051906020019062000125929190620003e9565b50620001366200019260201b60201c565b60008190555050506200015e620001526200019b60201b60201c565b620001a360201b60201c565b600160098190555062000177826200026960201b60201c565b62000188816200031460201b60201c565b50505050620007ce565b60006001905090565b600033905090565b6000600860009054906101000a900473ffffffffffffffffffffffffffffffffffffffff16905081600860006101000a81548173ffffffffffffffffffffffffffffffffffffffff021916908373ffffffffffffffffffffffffffffffffffffffff1602179055508173ffffffffffffffffffffffffffffffffffffffff168173ffffffffffffffffffffffffffffffffffffffff167f8be0079c531659141344cd1fd0a4f28419497f9722a3daafe3b4186f6b6457e060405160405180910390a35050565b620002796200019b60201b60201c565b73ffffffffffffffffffffffffffffffffffffffff166200029f620003bf60201b60201c565b73ffffffffffffffffffffffffffffffffffffffff1614620002f8576040517f08c379a0000000000000000000000000000000000000000000000000000000008152600401620002ef9062000602565b60405180910390fd5b80600a908051906020019062000310929190620003e9565b5050565b620003246200019b60201b60201c565b73ffffffffffffffffffffffffffffffffffffffff166200034a620003bf60201b60201c565b73ffffffffffffffffffffffffffffffffffffffff1614620003a3576040517f08c379a00000000000000000000000000000000000000000000000000000000081526004016200039a9062000602565b60405180910390fd5b80600c9080519060200190620003bb929190620003e9565b5050565b6000600860009054906101000a900473ffffffffffffffffffffffffffffffffffffffff16905090565b828054620003f790620006ca565b90600052602060002090601f0160209004810192826200041b576000855562000467565b82601f106200043657805160ff191683800117855562000467565b8280016001018555821562000467579182015b828111156200046657825182559160200191906001019062000449565b5b5090506200047691906200047a565b5090565b5b80821115620004955760008160009055506001016200047b565b5090565b6000620004b0620004aa846200064d565b62000624565b905082815260208101848484011115620004c957600080fd5b620004d684828562000694565b509392505050565b600082601f830112620004f057600080fd5b81516200050284826020860162000499565b91505092915050565b600080600080608085870312156200052257600080fd5b600085015167ffffffffffffffff8111156200053d57600080fd5b6200054b87828801620004de565b945050602085015167ffffffffffffffff8111156200056957600080fd5b6200057787828801620004de565b935050604085015167ffffffffffffffff8111156200059557600080fd5b620005a387828801620004de565b925050606085015167ffffffffffffffff811115620005c157600080fd5b620005cf87828801620004de565b91505092959194509250565b6000620005ea60208362000683565b9150620005f782620007a5565b602082019050919050565b600060208201905081810360008301526200061d81620005db565b9050919050565b60006200063062000643565b90506200063e828262000700565b919050565b6000604051905090565b600067ffffffffffffffff8211156200066b576200066a62000765565b5b620006768262000794565b9050602081019050919050565b600082825260208201905092915050565b60005b83811015620006b457808201518184015260208101905062000697565b83811115620006c4576000848401525b50505050565b60006002820490506001821680620006e357607f821691505b60208210811415620006fa57620006f962000736565b5b50919050565b6200070b8262000794565b810181811067ffffffffffffffff821117156200072d576200072c62000765565b5b80604052505050565b7f4e487b7100000000000000000000000000000000000000000000000000000000600052602260045260246000fd5b7f4e487b7100000000000000000000000000000000000000000000000000000000600052604160045260246000fd5b6000601f19601f8301169050919050565b7f4f776e61626c653a2063616c6c6572206973206e6f7420746865206f776e6572600082015250565b61448b80620007de6000396000f3fe6080604052600436106102515760003560e01c8063715018a611610139578063ba7d2c76116100b6578063d5abeb011161007a578063d5abeb0114610884578063da3ef23f146108af578063e985e9c5146108d8578063edec5f2714610915578063f2c4ce1e1461093e578063f2fde38b1461096757610251565b8063ba7d2c761461078b578063bfa389cc146107b6578063c6682862146107f3578063c87b56dd1461081e578063d0eb26b01461085b57610251565b8063a0712d68116100fd578063a0712d68146106c9578063a22cb465146106e5578063a475b5dd1461070e578063b88d4fde14610725578063ba4e5c491461074e57610251565b8063715018a6146106085780637f00c7a61461061f5780638da5cb5b1461064857806395d89b41146106735780639c70b5121461069e57610251565b80633af32abf116101d2578063518302271161019657806351830227146104e457806355f804b31461050f5780635c975abb146105385780636352211e146105635780636c0360eb146105a057806370a08231146105cb57610251565b80633af32abf146104225780633c9527641461045f5780633ccfd60b1461048857806342842e0e1461049257806344a0d68a146104bb57610251565b8063095ea7b311610219578063095ea7b31461034f57806313faede61461037857806318160ddd146103a3578063239c70ae146103ce57806323b872dd146103f957610251565b806301ffc9a71461025657806302329a291461029357806306fdde03146102bc578063081812fc146102e7578063081c8c4414610324575b600080fd5b34801561026257600080fd5b5061027d600480360381019061027891906137ba565b610990565b60405161028a9190613bf3565b60405180910390f35b34801561029f57600080fd5b506102ba60048036038101906102b59190613791565b610a72565b005b3480156102c857600080fd5b506102d1610b0b565b6040516102de9190613c0e565b60405180910390f35b3480156102f357600080fd5b5061030e6004803603810190610309919061384d565b610b9d565b60405161031b9190613b8c565b60405180910390f35b34801561033057600080fd5b50610339610c19565b6040516103469190613c0e565b60405180910390f35b34801561035b57600080fd5b5061037660048036038101906103719190613710565b610ca7565b005b34801561038457600080fd5b5061038d610db2565b60405161039a9190613d70565b60405180910390f35b3480156103af57600080fd5b506103b8610db8565b6040516103c59190613d70565b60405180910390f35b3480156103da57600080fd5b506103e3610dcf565b6040516103f09190613d70565b60405180910390f35b34801561040557600080fd5b50610420600480360381019061041b919061360a565b610dd5565b005b34801561042e57600080fd5b50610449600480360381019061044491906135a5565b610de5565b6040516104569190613bf3565b60405180910390f35b34801561046b57600080fd5b5061048660048036038101906104819190613791565b610eba565b005b610490610f53565b005b34801561049e57600080fd5b506104b960048036038101906104b4919061360a565b611048565b005b3480156104c757600080fd5b506104e260048036038101906104dd919061384d565b611068565b005b3480156104f057600080fd5b506104f96110ee565b6040516105069190613bf3565b60405180910390f35b34801561051b57600080fd5b506105366004803603810190610531919061380c565b611101565b005b34801561054457600080fd5b5061054d611197565b60405161055a9190613bf3565b60405180910390f35b34801561056f57600080fd5b5061058a6004803603810190610585919061384d565b6111aa565b6040516105979190613b8c565b60405180910390f35b3480156105ac57600080fd5b506105b56111c0565b6040516105c29190613c0e565b60405180910390f35b3480156105d757600080fd5b506105f260048036038101906105ed91906135a5565b61124e565b6040516105ff9190613d70565b60405180910390f35b34801561061457600080fd5b5061061d61131e565b005b34801561062b57600080fd5b506106466004803603810190610641919061384d565b6113a6565b005b34801561065457600080fd5b5061065d61142c565b60405161066a9190613b8c565b60405180910390f35b34801561067f57600080fd5b50610688611456565b6040516106959190613c0e565b60405180910390f35b3480156106aa57600080fd5b506106b36114e8565b6040516106c09190613bf3565b60405180910390f35b6106e360048036038101906106de919061384d565b6114fb565b005b3480156106f157600080fd5b5061070c600480360381019061070791906136d4565b611839565b005b34801561071a57600080fd5b506107236119b1565b005b34801561073157600080fd5b5061074c60048036038101906107479190613659565b611a4a565b005b34801561075a57600080fd5b506107756004803603810190610770919061384d565b611ac6565b6040516107829190613b8c565b60405180910390f35b34801561079757600080fd5b506107a0611b05565b6040516107ad9190613d70565b60405180910390f35b3480156107c257600080fd5b506107dd60048036038101906107d891906135a5565b611b0b565b6040516107ea9190613d70565b60405180910390f35b3480156107ff57600080fd5b50610808611b23565b6040516108159190613c0e565b60405180910390f35b34801561082a57600080fd5b506108456004803603810190610840919061384d565b611bb1565b6040516108529190613c0e565b60405180910390f35b34801561086757600080fd5b50610882600480360381019061087d919061384d565b611d0a565b005b34801561089057600080fd5b50610899611d90565b6040516108a69190613d70565b60405180910390f35b3480156108bb57600080fd5b506108d660048036038101906108d1919061380c565b611d96565b005b3480156108e457600080fd5b506108ff60048036038101906108fa91906135ce565b611e2c565b60405161090c9190613bf3565b60405180910390f35b34801561092157600080fd5b5061093c6004803603810190610937919061374c565b611ec0565b005b34801561094a57600080fd5b506109656004803603810190610960919061380c565b611f60565b005b34801561097357600080fd5b5061098e600480360381019061098991906135a5565b611ff6565b005b60007f80ac58cd000000000000000000000000000000000000000000000000000000007bffffffffffffffffffffffffffffffffffffffffffffffffffffffff1916827bffffffffffffffffffffffffffffffffffffffffffffffffffffffff19161480610a5b57507f5b5e139f000000000000000000000000000000000000000000000000000000007bffffffffffffffffffffffffffffffffffffffffffffffffffffffff1916827bffffffffffffffffffffffffffffffffffffffffffffffffffffffff1916145b80610a6b5750610a6a826120ee565b5b9050919050565b610a7a612158565b73ffffffffffffffffffffffffffffffffffffffff16610a9861142c565b73ffffffffffffffffffffffffffffffffffffffff1614610aee576040517f08c379a0000000000000000000000000000000000000000000000000000000008152600401610ae590613cb0565b60405180910390fd5b80601160006101000a81548160ff02191690831515021790555050565b606060028054610b1a90614040565b80601f0160208091040260200160405190810160405280929190818152602001828054610b4690614040565b8015610b935780601f10610b6857610100808354040283529160200191610b93565b820191906000526020600020905b815481529060010190602001808311610b7657829003601f168201915b5050505050905090565b6000610ba882612160565b610bde576040517fcf4700e400000000000000000000000000000000000000000000000000000000815260040160405180910390fd5b6006600083815260200190815260200160002060009054906101000a900473ffffffffffffffffffffffffffffffffffffffff169050919050565b600c8054610c2690614040565b80601f0160208091040260200160405190810160405280929190818152602001828054610c5290614040565b8015610c9f5780601f10610c7457610100808354040283529160200191610c9f565b820191906000526020600020905b815481529060010190602001808311610c8257829003601f168201915b505050505081565b6000610cb2826111aa565b90508073ffffffffffffffffffffffffffffffffffffffff168373ffffffffffffffffffffffffffffffffffffffff161415610d1a576040517f943f7b8c00000000000000000000000000000000000000000000000000000000815260040160405180910390fd5b8073ffffffffffffffffffffffffffffffffffffffff16610d39612158565b73ffffffffffffffffffffffffffffffffffffffff1614158015610d6b5750610d6981610d64612158565b611e2c565b155b15610da2576040517fcfb3b94200000000000000000000000000000000000000000000000000000000815260040160405180910390fd5b610dad8383836121ae565b505050565b600d5481565b6000610dc2612260565b6001546000540303905090565b600f5481565b610de0838383612269565b505050565b600080600090505b601280549050811015610eaf578273ffffffffffffffffffffffffffffffffffffffff1660128281548110610e4b577f4e487b7100000000000000000000000000000000000000000000000000000000600052603260045260246000fd5b9060005260206000200160009054906101000a900473ffffffffffffffffffffffffffffffffffffffff1673ffffffffffffffffffffffffffffffffffffffff161415610e9c576001915050610eb5565b8080610ea7906140a3565b915050610ded565b50600090505b919050565b610ec2612158565b73ffffffffffffffffffffffffffffffffffffffff16610ee061142c565b73ffffffffffffffffffffffffffffffffffffffff1614610f36576040517f08c379a0000000000000000000000000000000000000000000000000000000008152600401610f2d90613cb0565b60405180910390fd5b80601160026101000a81548160ff02191690831515021790555050565b610f5b612158565b73ffffffffffffffffffffffffffffffffffffffff16610f7961142c565b73ffffffffffffffffffffffffffffffffffffffff1614610fcf576040517f08c379a0000000000000000000000000000000000000000000000000000000008152600401610fc690613cb0565b60405180910390fd5b60003373ffffffffffffffffffffffffffffffffffffffff1647604051610ff590613b77565b60006040518083038185875af1925050503d8060008114611032576040519150601f19603f3d011682016040523d82523d6000602084013e611037565b606091505b505090508061104557600080fd5b50565b61106383838360405180602001604052806000815250611a4a565b505050565b611070612158565b73ffffffffffffffffffffffffffffffffffffffff1661108e61142c565b73ffffffffffffffffffffffffffffffffffffffff16146110e4576040517f08c379a00000000000000000000000000000000000000000000000000000000081526004016110db90613cb0565b60405180910390fd5b80600d8190555050565b601160019054906101000a900460ff1681565b611109612158565b73ffffffffffffffffffffffffffffffffffffffff1661112761142c565b73ffffffffffffffffffffffffffffffffffffffff161461117d576040517f08c379a000000000000000000000000000000000000000000000000000000000815260040161117490613cb0565b60405180910390fd5b80600a908051906020019061119392919061327b565b5050565b601160009054906101000a900460ff1681565b60006111b58261275a565b600001519050919050565b600a80546111cd90614040565b80601f01602080910402602001604051908101604052809291908181526020018280546111f990614040565b80156112465780601f1061121b57610100808354040283529160200191611246565b820191906000526020600020905b81548152906001019060200180831161122957829003601f168201915b505050505081565b60008073ffffffffffffffffffffffffffffffffffffffff168273ffffffffffffffffffffffffffffffffffffffff1614156112b6576040517f8f4eb60400000000000000000000000000000000000000000000000000000000815260040160405180910390fd5b600560008373ffffffffffffffffffffffffffffffffffffffff1673ffffffffffffffffffffffffffffffffffffffff16815260200190815260200160002060000160009054906101000a900467ffffffffffffffff1667ffffffffffffffff169050919050565b611326612158565b73ffffffffffffffffffffffffffffffffffffffff1661134461142c565b73ffffffffffffffffffffffffffffffffffffffff161461139a576040517f08c379a000000000000000000000000000000000000000000000000000000000815260040161139190613cb0565b60405180910390fd5b6113a460006129e9565b565b6113ae612158565b73ffffffffffffffffffffffffffffffffffffffff166113cc61142c565b73ffffffffffffffffffffffffffffffffffffffff1614611422576040517f08c379a000000000000000000000000000000000000000000000000000000000815260040161141990613cb0565b60405180910390fd5b80600f8190555050565b6000600860009054906101000a900473ffffffffffffffffffffffffffffffffffffffff16905090565b60606003805461146590614040565b80601f016020809104026020016040519081016040528092919081815260200182805461149190614040565b80156114de5780601f106114b3576101008083540402835291602001916114de565b820191906000526020600020905b8154815290600101906020018083116114c157829003601f168201915b5050505050905090565b601160029054906101000a900460ff1681565b601160009054906101000a900460ff161561154b576040517f08c379a000000000000000000000000000000000000000000000000000000000815260040161154290613cd0565b60405180910390fd5b6000611555610db8565b90506000821161159a576040517f08c379a000000000000000000000000000000000000000000000000000000000815260040161159190613d50565b60405180910390fd5b600f548211156115df576040517f08c379a00000000000000000000000000000000000000000000000000000000081526004016115d690613c90565b60405180910390fd5b600e5482826115ee9190613e75565b111561162f576040517f08c379a000000000000000000000000000000000000000000000000000000000815260040161162690613c70565b60405180910390fd5b61163761142c565b73ffffffffffffffffffffffffffffffffffffffff163373ffffffffffffffffffffffffffffffffffffffff16146117b45760011515601160029054906101000a900460ff16151514156117635761168e33610de5565b6116cd576040517f08c379a00000000000000000000000000000000000000000000000000000000081526004016116c490613d30565b60405180910390fd5b6000601360003373ffffffffffffffffffffffffffffffffffffffff1673ffffffffffffffffffffffffffffffffffffffff16815260200190815260200160002054905060105483826117209190613e75565b1115611761576040517f08c379a000000000000000000000000000000000000000000000000000000000815260040161175890613c50565b60405180910390fd5b505b81600d546117719190613efc565b3410156117b3576040517f08c379a00000000000000000000000000000000000000000000000000000000081526004016117aa90613d10565b60405180910390fd5b5b6000600190505b82811161182a57601360003373ffffffffffffffffffffffffffffffffffffffff1673ffffffffffffffffffffffffffffffffffffffff1681526020019081526020016000206000815480929190611812906140a3565b91905055508080611822906140a3565b9150506117bb565b506118353383612aaf565b5050565b611841612158565b73ffffffffffffffffffffffffffffffffffffffff168273ffffffffffffffffffffffffffffffffffffffff1614156118a6576040517fb06307db00000000000000000000000000000000000000000000000000000000815260040160405180910390fd5b80600760006118b3612158565b73ffffffffffffffffffffffffffffffffffffffff1673ffffffffffffffffffffffffffffffffffffffff16815260200190815260200160002060008473ffffffffffffffffffffffffffffffffffffffff1673ffffffffffffffffffffffffffffffffffffffff16815260200190815260200160002060006101000a81548160ff0219169083151502179055508173ffffffffffffffffffffffffffffffffffffffff16611960612158565b73ffffffffffffffffffffffffffffffffffffffff167f17307eab39ab6107e8899845ad3d59bd9653f200f220920489ca2b5937696c31836040516119a59190613bf3565b60405180910390a35050565b6119b9612158565b73ffffffffffffffffffffffffffffffffffffffff166119d761142c565b73ffffffffffffffffffffffffffffffffffffffff1614611a2d576040517f08c379a0000000000000000000000000000000000000000000000000000000008152600401611a2490613cb0565b60405180910390fd5b6001601160016101000a81548160ff021916908315150217905550565b611a55848484612269565b611a748373ffffffffffffffffffffffffffffffffffffffff16612acd565b8015611a895750611a8784848484612af0565b155b15611ac0576040517fd1a57ed600000000000000000000000000000000000000000000000000000000815260040160405180910390fd5b50505050565b60128181548110611ad657600080fd5b906000526020600020016000915054906101000a900473ffffffffffffffffffffffffffffffffffffffff1681565b60105481565b60136020528060005260406000206000915090505481565b600b8054611b3090614040565b80601f0160208091040260200160405190810160405280929190818152602001828054611b5c90614040565b8015611ba95780601f10611b7e57610100808354040283529160200191611ba9565b820191906000526020600020905b815481529060010190602001808311611b8c57829003601f168201915b505050505081565b6060611bbc82612160565b611bfb576040517f08c379a0000000000000000000000000000000000000000000000000000000008152600401611bf290613cf0565b60405180910390fd5b60001515601160019054906101000a900460ff1615151415611ca957600c8054611c2490614040565b80601f0160208091040260200160405190810160405280929190818152602001828054611c5090614040565b8015611c9d5780601f10611c7257610100808354040283529160200191611c9d565b820191906000526020600020905b815481529060010190602001808311611c8057829003601f168201915b50505050509050611d05565b6000611cb3612c50565b90506000815111611cd35760405180602001604052806000815250611d01565b80611cdd84612ce2565b600b604051602001611cf193929190613b46565b6040516020818303038152906040525b9150505b919050565b611d12612158565b73ffffffffffffffffffffffffffffffffffffffff16611d3061142c565b73ffffffffffffffffffffffffffffffffffffffff1614611d86576040517f08c379a0000000000000000000000000000000000000000000000000000000008152600401611d7d90613cb0565b60405180910390fd5b8060108190555050565b600e5481565b611d9e612158565b73ffffffffffffffffffffffffffffffffffffffff16611dbc61142c565b73ffffffffffffffffffffffffffffffffffffffff1614611e12576040517f08c379a0000000000000000000000000000000000000000000000000000000008152600401611e0990613cb0565b60405180910390fd5b80600b9080519060200190611e2892919061327b565b5050565b6000600760008473ffffffffffffffffffffffffffffffffffffffff1673ffffffffffffffffffffffffffffffffffffffff16815260200190815260200160002060008373ffffffffffffffffffffffffffffffffffffffff1673ffffffffffffffffffffffffffffffffffffffff16815260200190815260200160002060009054906101000a900460ff16905092915050565b611ec8612158565b73ffffffffffffffffffffffffffffffffffffffff16611ee661142c565b73ffffffffffffffffffffffffffffffffffffffff1614611f3c576040517f08c379a0000000000000000000000000000000000000000000000000000000008152600401611f3390613cb0565b60405180910390fd5b60126000611f4a9190613301565b818160129190611f5b929190613322565b505050565b611f68612158565b73ffffffffffffffffffffffffffffffffffffffff16611f8661142c565b73ffffffffffffffffffffffffffffffffffffffff1614611fdc576040517f08c379a0000000000000000000000000000000000000000000000000000000008152600401611fd390613cb0565b60405180910390fd5b80600c9080519060200190611ff292919061327b565b5050565b611ffe612158565b73ffffffffffffffffffffffffffffffffffffffff1661201c61142c565b73ffffffffffffffffffffffffffffffffffffffff1614612072576040517f08c379a000000000000000000000000000000000000000000000000000000000815260040161206990613cb0565b60405180910390fd5b600073ffffffffffffffffffffffffffffffffffffffff168173ffffffffffffffffffffffffffffffffffffffff1614156120e2576040517f08c379a00000000000000000000000000000000000000000000000000000000081526004016120d990613c30565b60405180910390fd5b6120eb816129e9565b50565b60007f01ffc9a7000000000000000000000000000000000000000000000000000000007bffffffffffffffffffffffffffffffffffffffffffffffffffffffff1916827bffffffffffffffffffffffffffffffffffffffffffffffffffffffff1916149050919050565b600033905090565b60008161216b612260565b1115801561217a575060005482105b80156121a7575060046000838152602001908152602001600020600001601c9054906101000a900460ff16155b9050919050565b826006600084815260200190815260200160002060006101000a81548173ffffffffffffffffffffffffffffffffffffffff021916908373ffffffffffffffffffffffffffffffffffffffff160217905550818373ffffffffffffffffffffffffffffffffffffffff168273ffffffffffffffffffffffffffffffffffffffff167f8c5be1e5ebec7d5bd14f71427d1e84f3dd0314c0f7b2291e5b200ac8c7c3b92560405160405180910390a4505050565b60006001905090565b60006122748261275a565b90506000816000015173ffffffffffffffffffffffffffffffffffffffff1661229b612158565b73ffffffffffffffffffffffffffffffffffffffff1614806122ce57506122cd82600001516122c8612158565b611e2c565b5b8061231357506122dc612158565b73ffffffffffffffffffffffffffffffffffffffff166122fb84610b9d565b73ffffffffffffffffffffffffffffffffffffffff16145b90508061234c576040517f59c896be00000000000000000000000000000000000000000000000000000000815260040160405180910390fd5b8473ffffffffffffffffffffffffffffffffffffffff16826000015173ffffffffffffffffffffffffffffffffffffffff16146123b5576040517fa114810000000000000000000000000000000000000000000000000000000000815260040160405180910390fd5b600073ffffffffffffffffffffffffffffffffffffffff168473ffffffffffffffffffffffffffffffffffffffff16141561241c576040517fea553b3400000000000000000000000000000000000000000000000000000000815260040160405180910390fd5b6124298585856001612e8f565b61243960008484600001516121ae565b6001600560008773ffffffffffffffffffffffffffffffffffffffff1673ffffffffffffffffffffffffffffffffffffffff16815260200190815260200160002060000160008282829054906101000a900467ffffffffffffffff160392506101000a81548167ffffffffffffffff021916908367ffffffffffffffff1602179055506001600560008673ffffffffffffffffffffffffffffffffffffffff1673ffffffffffffffffffffffffffffffffffffffff16815260200190815260200160002060000160008282829054906101000a900467ffffffffffffffff160192506101000a81548167ffffffffffffffff021916908367ffffffffffffffff160217905550836004600085815260200190815260200160002060000160006101000a81548173ffffffffffffffffffffffffffffffffffffffff021916908373ffffffffffffffffffffffffffffffffffffffff160217905550426004600085815260200190815260200160002060000160146101000a81548167ffffffffffffffff021916908367ffffffffffffffff1602179055506000600184019050600073ffffffffffffffffffffffffffffffffffffffff166004600083815260200190815260200160002060000160009054906101000a900473ffffffffffffffffffffffffffffffffffffffff1673ffffffffffffffffffffffffffffffffffffffff1614156126ea576000548110156126e95782600001516004600083815260200190815260200160002060000160006101000a81548173ffffffffffffffffffffffffffffffffffffffff021916908373ffffffffffffffffffffffffffffffffffffffff16021790555082602001516004600083815260200190815260200160002060000160146101000a81548167ffffffffffffffff021916908367ffffffffffffffff1602179055505b5b50828473ffffffffffffffffffffffffffffffffffffffff168673ffffffffffffffffffffffffffffffffffffffff167fddf252ad1be2c89b69c2b068fc378daa952ba7f163c4a11628f55a4df523b3ef60405160405180910390a46127538585856001612e95565b5050505050565b6127626133c2565b600082905080612770612260565b1115801561277f575060005481105b156129b2576000600460008381526020019081526020016000206040518060600160405290816000820160009054906101000a900473ffffffffffffffffffffffffffffffffffffffff1673ffffffffffffffffffffffffffffffffffffffff1673ffffffffffffffffffffffffffffffffffffffff1681526020016000820160149054906101000a900467ffffffffffffffff1667ffffffffffffffff1667ffffffffffffffff16815260200160008201601c9054906101000a900460ff161515151581525050905080604001516129b057600073ffffffffffffffffffffffffffffffffffffffff16816000015173ffffffffffffffffffffffffffffffffffffffff16146128945780925050506129e4565b5b6001156129af57818060019003925050600460008381526020019081526020016000206040518060600160405290816000820160009054906101000a900473ffffffffffffffffffffffffffffffffffffffff1673ffffffffffffffffffffffffffffffffffffffff1673ffffffffffffffffffffffffffffffffffffffff1681526020016000820160149054906101000a900467ffffffffffffffff1667ffffffffffffffff1667ffffffffffffffff16815260200160008201601c9054906101000a900460ff1615151515815250509050600073ffffffffffffffffffffffffffffffffffffffff16816000015173ffffffffffffffffffffffffffffffffffffffff16146129aa5780925050506129e4565b612895565b5b505b6040517fdf2d9b4200000000000000000000000000000000000000000000000000000000815260040160405180910390fd5b919050565b6000600860009054906101000a900473ffffffffffffffffffffffffffffffffffffffff16905081600860006101000a81548173ffffffffffffffffffffffffffffffffffffffff021916908373ffffffffffffffffffffffffffffffffffffffff1602179055508173ffffffffffffffffffffffffffffffffffffffff168173ffffffffffffffffffffffffffffffffffffffff167f8be0079c531659141344cd1fd0a4f28419497f9722a3daafe3b4186f6b6457e060405160405180910390a35050565b612ac9828260405180602001604052806000815250612e9b565b5050565b6000808273ffffffffffffffffffffffffffffffffffffffff163b119050919050565b60008373ffffffffffffffffffffffffffffffffffffffff1663150b7a02612b16612158565b8786866040518563ffffffff1660e01b8152600401612b389493929190613ba7565b602060405180830381600087803b158015612b5257600080fd5b505af1925050508015612b8357506040513d601f19601f82011682018060405250810190612b8091906137e3565b60015b612bfd573d8060008114612bb3576040519150601f19603f3d011682016040523d82523d6000602084013e612bb8565b606091505b50600081511415612bf5576040517fd1a57ed600000000000000000000000000000000000000000000000000000000815260040160405180910390fd5b805181602001fd5b63150b7a0260e01b7bffffffffffffffffffffffffffffffffffffffffffffffffffffffff1916817bffffffffffffffffffffffffffffffffffffffffffffffffffffffff191614915050949350505050565b6060600a8054612c5f90614040565b80601f0160208091040260200160405190810160405280929190818152602001828054612c8b90614040565b8015612cd85780601f10612cad57610100808354040283529160200191612cd8565b820191906000526020600020905b815481529060010190602001808311612cbb57829003601f168201915b5050505050905090565b60606000821415612d2a576040518060400160405280600181526020017f30000000000000000000000000000000000000000000000000000000000000008152509050612e8a565b600082905060005b60008214612d5c578080612d45906140a3565b915050600a82612d559190613ecb565b9150612d32565b60008167ffffffffffffffff811115612d9e577f4e487b7100000000000000000000000000000000000000000000000000000000600052604160045260246000fd5b6040519080825280601f01601f191660200182016040528015612dd05781602001600182028036833780820191505090505b5090505b60008514612e8357600182612de99190613f56565b9150600a85612df891906140ec565b6030612e049190613e75565b60f81b818381518110612e40577f4e487b7100000000000000000000000000000000000000000000000000000000600052603260045260246000fd5b60200101907effffffffffffffffffffffffffffffffffffffffffffffffffffffffffffff1916908160001a905350600a85612e7c9190613ecb565b9450612dd4565b8093505050505b919050565b50505050565b50505050565b612ea88383836001612ead565b505050565b600080549050600073ffffffffffffffffffffffffffffffffffffffff168573ffffffffffffffffffffffffffffffffffffffff161415612f1a576040517f2e07630000000000000000000000000000000000000000000000000000000000815260040160405180910390fd5b6000841415612f55576040517fb562e8dd00000000000000000000000000000000000000000000000000000000815260040160405180910390fd5b612f626000868387612e8f565b83600560008773ffffffffffffffffffffffffffffffffffffffff1673ffffffffffffffffffffffffffffffffffffffff16815260200190815260200160002060000160008282829054906101000a900467ffffffffffffffff160192506101000a81548167ffffffffffffffff021916908367ffffffffffffffff16021790555083600560008773ffffffffffffffffffffffffffffffffffffffff1673ffffffffffffffffffffffffffffffffffffffff16815260200190815260200160002060000160088282829054906101000a900467ffffffffffffffff160192506101000a81548167ffffffffffffffff021916908367ffffffffffffffff160217905550846004600083815260200190815260200160002060000160006101000a81548173ffffffffffffffffffffffffffffffffffffffff021916908373ffffffffffffffffffffffffffffffffffffffff160217905550426004600083815260200190815260200160002060000160146101000a81548167ffffffffffffffff021916908367ffffffffffffffff16021790555060008190506000858201905083801561312c575061312b8773ffffffffffffffffffffffffffffffffffffffff16612acd565b5b156131f2575b818773ffffffffffffffffffffffffffffffffffffffff16600073ffffffffffffffffffffffffffffffffffffffff167fddf252ad1be2c89b69c2b068fc378daa952ba7f163c4a11628f55a4df523b3ef60405160405180910390a46131a16000888480600101955088612af0565b6131d7576040517fd1a57ed600000000000000000000000000000000000000000000000000000000815260040160405180910390fd5b808214156131325782600054146131ed57600080fd5b61325e565b5b818060010192508773ffffffffffffffffffffffffffffffffffffffff16600073ffffffffffffffffffffffffffffffffffffffff167fddf252ad1be2c89b69c2b068fc378daa952ba7f163c4a11628f55a4df523b3ef60405160405180910390a4808214156131f3575b8160008190555050506132746000868387612e95565b5050505050565b82805461328790614040565b90600052602060002090601f0160209004810192826132a957600085556132f0565b82601f106132c257805160ff19168380011785556132f0565b828001600101855582156132f0579182015b828111156132ef5782518255916020019190600101906132d4565b5b5090506132fd9190613405565b5090565b508054600082559060005260206000209081019061331f9190613405565b50565b8280548282559060005260206000209081019282156133b1579160200282015b828111156133b057823573ffffffffffffffffffffffffffffffffffffffff168260006101000a81548173ffffffffffffffffffffffffffffffffffffffff021916908373ffffffffffffffffffffffffffffffffffffffff16021790555091602001919060010190613342565b5b5090506133be9190613405565b5090565b6040518060600160405280600073ffffffffffffffffffffffffffffffffffffffff168152602001600067ffffffffffffffff1681526020016000151581525090565b5b8082111561341e576000816000905550600101613406565b5090565b600061343561343084613db0565b613d8b565b90508281526020810184848401111561344d57600080fd5b613458848285613ffe565b509392505050565b600061347361346e84613de1565b613d8b565b90508281526020810184848401111561348b57600080fd5b613496848285613ffe565b509392505050565b6000813590506134ad816143f9565b92915050565b60008083601f8401126134c557600080fd5b8235905067ffffffffffffffff8111156134de57600080fd5b6020830191508360208202830111156134f657600080fd5b9250929050565b60008135905061350c81614410565b92915050565b60008135905061352181614427565b92915050565b60008151905061353681614427565b92915050565b600082601f83011261354d57600080fd5b813561355d848260208601613422565b91505092915050565b600082601f83011261357757600080fd5b8135613587848260208601613460565b91505092915050565b60008135905061359f8161443e565b92915050565b6000602082840312156135b757600080fd5b60006135c58482850161349e565b91505092915050565b600080604083850312156135e157600080fd5b60006135ef8582860161349e565b92505060206136008582860161349e565b9150509250929050565b60008060006060848603121561361f57600080fd5b600061362d8682870161349e565b935050602061363e8682870161349e565b925050604061364f86828701613590565b9150509250925092565b6000806000806080858703121561366f57600080fd5b600061367d8782880161349e565b945050602061368e8782880161349e565b935050604061369f87828801613590565b925050606085013567ffffffffffffffff8111156136bc57600080fd5b6136c88782880161353c565b91505092959194509250565b600080604083850312156136e757600080fd5b60006136f58582860161349e565b9250506020613706858286016134fd565b9150509250929050565b6000806040838503121561372357600080fd5b60006137318582860161349e565b925050602061374285828601613590565b9150509250929050565b6000806020838503121561375f57600080fd5b600083013567ffffffffffffffff81111561377957600080fd5b613785858286016134b3565b92509250509250929050565b6000602082840312156137a357600080fd5b60006137b1848285016134fd565b91505092915050565b6000602082840312156137cc57600080fd5b60006137da84828501613512565b91505092915050565b6000602082840312156137f557600080fd5b600061380384828501613527565b91505092915050565b60006020828403121561381e57600080fd5b600082013567ffffffffffffffff81111561383857600080fd5b61384484828501613566565b91505092915050565b60006020828403121561385f57600080fd5b600061386d84828501613590565b91505092915050565b61387f81613f8a565b82525050565b61388e81613f9c565b82525050565b600061389f82613e27565b6138a98185613e3d565b93506138b981856020860161400d565b6138c2816141d9565b840191505092915050565b60006138d882613e32565b6138e28185613e59565b93506138f281856020860161400d565b6138fb816141d9565b840191505092915050565b600061391182613e32565b61391b8185613e6a565b935061392b81856020860161400d565b80840191505092915050565b6000815461394481614040565b61394e8186613e6a565b94506001821660008114613969576001811461397a576139ad565b60ff198316865281860193506139ad565b61398385613e12565b60005b838110156139a557815481890152600182019150602081019050613986565b838801955050505b50505092915050565b60006139c3602683613e59565b91506139ce826141ea565b604082019050919050565b60006139e6601c83613e59565b91506139f182614239565b602082019050919050565b6000613a09601683613e59565b9150613a1482614262565b602082019050919050565b6000613a2c602483613e59565b9150613a378261428b565b604082019050919050565b6000613a4f602083613e59565b9150613a5a826142da565b602082019050919050565b6000613a72601683613e59565b9150613a7d82614303565b602082019050919050565b6000613a95602f83613e59565b9150613aa08261432c565b604082019050919050565b6000613ab8600083613e4e565b9150613ac38261437b565b600082019050919050565b6000613adb601283613e59565b9150613ae68261437e565b602082019050919050565b6000613afe601783613e59565b9150613b09826143a7565b602082019050919050565b6000613b21601b83613e59565b9150613b2c826143d0565b602082019050919050565b613b4081613ff4565b82525050565b6000613b528286613906565b9150613b5e8285613906565b9150613b6a8284613937565b9150819050949350505050565b6000613b8282613aab565b9150819050919050565b6000602082019050613ba16000830184613876565b92915050565b6000608082019050613bbc6000830187613876565b613bc96020830186613876565b613bd66040830185613b37565b8181036060830152613be88184613894565b905095945050505050565b6000602082019050613c086000830184613885565b92915050565b60006020820190508181036000830152613c2881846138cd565b905092915050565b60006020820190508181036000830152613c49816139b6565b9050919050565b60006020820190508181036000830152613c69816139d9565b9050919050565b60006020820190508181036000830152613c89816139fc565b9050919050565b60006020820190508181036000830152613ca981613a1f565b9050919050565b60006020820190508181036000830152613cc981613a42565b9050919050565b60006020820190508181036000830152613ce981613a65565b9050919050565b60006020820190508181036000830152613d0981613a88565b9050919050565b60006020820190508181036000830152613d2981613ace565b9050919050565b60006020820190508181036000830152613d4981613af1565b9050919050565b60006020820190508181036000830152613d6981613b14565b9050919050565b6000602082019050613d856000830184613b37565b92915050565b6000613d95613da6565b9050613da18282614072565b919050565b6000604051905090565b600067ffffffffffffffff821115613dcb57613dca6141aa565b5b613dd4826141d9565b9050602081019050919050565b600067ffffffffffffffff821115613dfc57613dfb6141aa565b5b613e05826141d9565b9050602081019050919050565b60008190508160005260206000209050919050565b600081519050919050565b600081519050919050565b600082825260208201905092915050565b600081905092915050565b600082825260208201905092915050565b600081905092915050565b6000613e8082613ff4565b9150613e8b83613ff4565b9250827fffffffffffffffffffffffffffffffffffffffffffffffffffffffffffffffff03821115613ec057613ebf61411d565b5b828201905092915050565b6000613ed682613ff4565b9150613ee183613ff4565b925082613ef157613ef061414c565b5b828204905092915050565b6000613f0782613ff4565b9150613f1283613ff4565b9250817fffffffffffffffffffffffffffffffffffffffffffffffffffffffffffffffff0483118215151615613f4b57613f4a61411d565b5b828202905092915050565b6000613f6182613ff4565b9150613f6c83613ff4565b925082821015613f7f57613f7e61411d565b5b828203905092915050565b6000613f9582613fd4565b9050919050565b60008115159050919050565b60007fffffffff0000000000000000000000000000000000000000000000000000000082169050919050565b600073ffffffffffffffffffffffffffffffffffffffff82169050919050565b6000819050919050565b82818337600083830152505050565b60005b8381101561402b578082015181840152602081019050614010565b8381111561403a576000848401525b50505050565b6000600282049050600182168061405857607f821691505b6020821081141561406c5761406b61417b565b5b50919050565b61407b826141d9565b810181811067ffffffffffffffff8211171561409a576140996141aa565b5b80604052505050565b60006140ae82613ff4565b91507fffffffffffffffffffffffffffffffffffffffffffffffffffffffffffffffff8214156140e1576140e061411d565b5b600182019050919050565b60006140f782613ff4565b915061410283613ff4565b9250826141125761411161414c565b5b828206905092915050565b7f4e487b7100000000000000000000000000000000000000000000000000000000600052601160045260246000fd5b7f4e487b7100000000000000000000000000000000000000000000000000000000600052601260045260246000fd5b7f4e487b7100000000000000000000000000000000000000000000000000000000600052602260045260246000fd5b7f4e487b7100000000000000000000000000000000000000000000000000000000600052604160045260246000fd5b6000601f19601f8301169050919050565b7f4f776e61626c653a206e6577206f776e657220697320746865207a65726f206160008201527f6464726573730000000000000000000000000000000000000000000000000000602082015250565b7f6d6178204e465420706572206164647265737320657863656564656400000000600082015250565b7f6d6178204e4654206c696d697420657863656564656400000000000000000000600082015250565b7f6d6178206d696e7420616d6f756e74207065722073657373696f6e206578636560008201527f6564656400000000000000000000000000000000000000000000000000000000602082015250565b7f4f776e61626c653a2063616c6c6572206973206e6f7420746865206f776e6572600082015250565b7f74686520636f6e74726163742069732070617573656400000000000000000000600082015250565b7f4552433732314d657461646174613a2055524920717565727920666f72206e6f60008201527f6e6578697374656e7420746f6b656e0000000000000000000000000000000000602082015250565b50565b7f696e73756666696369656e742066756e64730000000000000000000000000000600082015250565b7f75736572206973206e6f742077686974656c6973746564000000000000000000600082015250565b7f6e65656420746f206d696e74206174206c656173742031204e46540000000000600082015250565b61440281613f8a565b811461440d57600080fd5b50565b61441981613f9c565b811461442457600080fd5b50565b61443081613fa8565b811461443b57600080fd5b50565b61444781613ff4565b811461445257600080fd5b5056fea26469706673582212209ea3e1d2faf4abf11ccf5dc14f07579a4b00fb052ecd29f8270744ca9eefd37d64736f6c63430008040033",
  "linkReferences": {},
  "deployedLinkReferences": {}
}